:1000000012C02CC02BC02AC029C028C027C026C0BF
:1000100025C024C023C022C021C020C01FC01EC0D4
:100020001DC01CC01BC011241FBECFE5D4E0DEBF25
:10003000CDBF10E0A0E6B0E0E2E9F0E002C005903C
:100040000D92A036B107D9F710E0A0E6B0E001C0EC
:100050001D92A036B107E1F702D019C0D1CF8FEFC2
:1000600087BB18BA88BB2FEF31EE44E021503040F7
:100070004040E1F700C0000018BA2FEF31EE44E035
:10008000215030404040E1F700C00000EBCFF89431
:02009000FFCFA0
:00000001FF
